{
  "contractName": "Booster",
  "abi": [
    {
      "inputs": [
        {
          "internalType": "address",
          "name": "_staker",
          "type": "address"
        },
        {
          "internalType": "address",
          "name": "_minter",
          "type": "address"
        },
        {
          "internalType": "address",
          "name": "_crv",
          "type": "address"
        },
        {
          "internalType": "address",
          "name": "_registry",
          "type": "address"
        },
        {
          "internalType": "address",
          "name": "_voteOwnership",
          "type": "address"
        },
        {
          "internalType": "address",
          "name": "_voteParameter",
          "type": "address"
        }
      ],
      "stateMutability": "nonpayable",
      "type": "constructor"
    },
    {
      "anonymous": false,
      "inputs": [
        {
          "indexed": true,
          "internalType": "address",
          "name": "user",
          "type": "address"
        },
        {
          "indexed": true,
          "internalType": "uint256",
          "name": "poolid",
          "type": "uint256"
        },
        {
          "indexed": false,
          "internalType": "uint256",
          "name": "amount",
          "type": "uint256"
        }
      ],
      "name": "Deposited",
      "type": "event"
    },
    {
      "anonymous": false,
      "inputs": [
        {
          "indexed": true,
          "internalType": "address",
          "name": "user",
          "type": "address"
        },
        {
          "indexed": true,
          "internalType": "uint256",
          "name": "poolid",
          "type": "uint256"
        },
        {
          "indexed": false,
          "internalType": "uint256",
          "name": "amount",
          "type": "uint256"
        }
      ],
      "name": "Withdrawn",
      "type": "event"
    },
    {
      "inputs": [],
      "name": "FEE_DENOMINATOR",
      "outputs": [
        {
          "internalType": "uint256",
          "name": "",
          "type": "uint256"
        }
      ],
      "stateMutability": "view",
      "type": "function",
      "constant": true
    },
    {
      "inputs": [],
      "name": "MaxFees",
      "outputs": [
        {
          "internalType": "uint256",
          "name": "",
          "type": "uint256"
        }
      ],
      "stateMutability": "view",
      "type": "function",
      "constant": true
    },
    {
      "inputs": [],
      "name": "crv",
      "outputs": [
        {
          "internalType": "address",
          "name": "",
          "type": "address"
        }
      ],
      "stateMutability": "view",
      "type": "function",
      "constant": true
    },
    {
      "inputs": [],
      "name": "distributionAddressId",
      "outputs": [
        {
          "internalType": "uint256",
          "name": "",
          "type": "uint256"
        }
      ],
      "stateMutability": "view",
      "type": "function",
      "constant": true
    },
    {
      "inputs": [],
      "name": "earmarkIncentive",
      "outputs": [
        {
          "internalType": "uint256",
          "name": "",
          "type": "uint256"
        }
      ],
      "stateMutability": "view",
      "type": "function",
      "constant": true
    },
    {
      "inputs": [],
      "name": "feeDistro",
      "outputs": [
        {
          "internalType": "address",
          "name": "",
          "type": "address"
        }
      ],
      "stateMutability": "view",
      "type": "function",
      "constant": true
    },
    {
      "inputs": [],
      "name": "feeManager",
      "outputs": [
        {
          "internalType": "address",
          "name": "",
          "type": "address"
        }
      ],
      "stateMutability": "view",
      "type": "function",
      "constant": true
    },
    {
      "inputs": [],
      "name": "feeToken",
      "outputs": [
        {
          "internalType": "address",
          "name": "",
          "type": "address"
        }
      ],
      "stateMutability": "view",
      "type": "function",
      "constant": true
    },
    {
      "inputs": [
        {
          "internalType": "address",
          "name": "",
          "type": "address"
        }
      ],
      "name": "gaugeMap",
      "outputs": [
        {
          "internalType": "bool",
          "name": "",
          "type": "bool"
        }
      ],
      "stateMutability": "view",
      "type": "function",
      "constant": true
    },
    {
      "inputs": [],
      "name": "isShutdown",
      "outputs": [
        {
          "internalType": "bool",
          "name": "",
          "type": "bool"
        }
      ],
      "stateMutability": "view",
      "type": "function",
      "constant": true
    },
    {
      "inputs": [],
      "name": "lockFees",
      "outputs": [
        {
          "internalType": "address",
          "name": "",
          "type": "address"
        }
      ],
      "stateMutability": "view",
      "type": "function",
      "constant": true
    },
    {
      "inputs": [],
      "name": "lockIncentive",
      "outputs": [
        {
          "internalType": "uint256",
          "name": "",
          "type": "uint256"
        }
      ],
      "stateMutability": "view",
      "type": "function",
      "constant": true
    },
    {
      "inputs": [],
      "name": "lockRewards",
      "outputs": [
        {
          "internalType": "address",
          "name": "",
          "type": "address"
        }
      ],
      "stateMutability": "view",
      "type": "function",
      "constant": true
    },
    {
      "inputs": [],
      "name": "minter",
      "outputs": [
        {
          "internalType": "address",
          "name": "",
          "type": "address"
        }
      ],
      "stateMutability": "view",
      "type": "function",
      "constant": true
    },
    {
      "inputs": [],
      "name": "owner",
      "outputs": [
        {
          "internalType": "address",
          "name": "",
          "type": "address"
        }
      ],
      "stateMutability": "view",
      "type": "function",
      "constant": true
    },
    {
      "inputs": [],
      "name": "platformFee",
      "outputs": [
        {
          "internalType": "uint256",
          "name": "",
          "type": "uint256"
        }
      ],
      "stateMutability": "view",
      "type": "function",
      "constant": true
    },
    {
      "inputs": [
        {
          "internalType": "uint256",
          "name": "",
          "type": "uint256"
        }
      ],
      "name": "poolInfo",
      "outputs": [
        {
          "internalType": "address",
          "name": "lptoken",
          "type": "address"
        },
        {
          "internalType": "address",
          "name": "token",
          "type": "address"
        },
        {
          "internalType": "address",
          "name": "gauge",
          "type": "address"
        },
        {
          "internalType": "address",
          "name": "crvRewards",
          "type": "address"
        },
        {
          "internalType": "address",
          "name": "stash",
          "type": "address"
        },
        {
          "internalType": "bool",
          "name": "shutdown",
          "type": "bool"
        }
      ],
      "stateMutability": "view",
      "type": "function",
      "constant": true
    },
    {
      "inputs": [],
      "name": "poolManager",
      "outputs": [
        {
          "internalType": "address",
          "name": "",
          "type": "address"
        }
      ],
      "stateMutability": "view",
      "type": "function",
      "constant": true
    },
    {
      "inputs": [],
      "name": "registry",
      "outputs": [
        {
          "internalType": "address",
          "name": "",
          "type": "address"
        }
      ],
      "stateMutability": "view",
      "type": "function",
      "constant": true
    },
    {
      "inputs": [],
      "name": "rewardArbitrator",
      "outputs": [
        {
          "internalType": "address",
          "name": "",
          "type": "address"
        }
      ],
      "stateMutability": "view",
      "type": "function",
      "constant": true
    },
    {
      "inputs": [],
      "name": "rewardFactory",
      "outputs": [
        {
          "internalType": "address",
          "name": "",
          "type": "address"
        }
      ],
      "stateMutability": "view",
      "type": "function",
      "constant": true
    },
    {
      "inputs": [],
      "name": "staker",
      "outputs": [
        {
          "internalType": "address",
          "name": "",
          "type": "address"
        }
      ],
      "stateMutability": "view",
      "type": "function",
      "constant": true
    },
    {
      "inputs": [],
      "name": "stakerIncentive",
      "outputs": [
        {
          "internalType": "uint256",
          "name": "",
          "type": "uint256"
        }
      ],
      "stateMutability": "view",
      "type": "function",
      "constant": true
    },
    {
      "inputs": [],
      "name": "stakerRewards",
      "outputs": [
        {
          "internalType": "address",
          "name": "",
          "type": "address"
        }
      ],
      "stateMutability": "view",
      "type": "function",
      "constant": true
    },
    {
      "inputs": [],
      "name": "stashFactory",
      "outputs": [
        {
          "internalType": "address",
          "name": "",
          "type": "address"
        }
      ],
      "stateMutability": "view",
      "type": "function",
      "constant": true
    },
    {
      "inputs": [],
      "name": "tokenFactory",
      "outputs": [
        {
          "internalType": "address",
          "name": "",
          "type": "address"
        }
      ],
      "stateMutability": "view",
      "type": "function",
      "constant": true
    },
    {
      "inputs": [],
      "name": "treasury",
      "outputs": [
        {
          "internalType": "address",
          "name": "",
          "type": "address"
        }
      ],
      "stateMutability": "view",
      "type": "function",
      "constant": true
    },
    {
      "inputs": [],
      "name": "voteDelegate",
      "outputs": [
        {
          "internalType": "address",
          "name": "",
          "type": "address"
        }
      ],
      "stateMutability": "view",
      "type": "function",
      "constant": true
    },
    {
      "inputs": [],
      "name": "voteOwnership",
      "outputs": [
        {
          "internalType": "address",
          "name": "",
          "type": "address"
        }
      ],
      "stateMutability": "view",
      "type": "function",
      "constant": true
    },
    {
      "inputs": [],
      "name": "voteParameter",
      "outputs": [
        {
          "internalType": "address",
          "name": "",
          "type": "address"
        }
      ],
      "stateMutability": "view",
      "type": "function",
      "constant": true
    },
    {
      "inputs": [
        {
          "internalType": "address",
          "name": "_owner",
          "type": "address"
        }
      ],
      "name": "setOwner",
      "outputs": [],
      "stateMutability": "nonpayable",
      "type": "function"
    },
    {
      "inputs": [
        {
          "internalType": "address",
          "name": "_feeM",
          "type": "address"
        }
      ],
      "name": "setFeeManager",
      "outputs": [],
      "stateMutability": "nonpayable",
      "type": "function"
    },
    {
      "inputs": [
        {
          "internalType": "address",
          "name": "_poolM",
          "type": "address"
        }
      ],
      "name": "setPoolManager",
      "outputs": [],
      "stateMutability": "nonpayable",
      "type": "function"
    },
    {
      "inputs": [
        {
          "internalType": "address",
          "name": "_rfactory",
          "type": "address"
        },
        {
          "internalType": "address",
          "name": "_sfactory",
          "type": "address"
        },
        {
          "internalType": "address",
          "name": "_tfactory",
          "type": "address"
        }
      ],
      "name": "setFactories",
      "outputs": [],
      "stateMutability": "nonpayable",
      "type": "function"
    },
    {
      "inputs": [
        {
          "internalType": "address",
          "name": "_arb",
          "type": "address"
        }
      ],
      "name": "setArbitrator",
      "outputs": [],
      "stateMutability": "nonpayable",
      "type": "function"
    },
    {
      "inputs": [
        {
          "internalType": "address",
          "name": "_voteDelegate",
          "type": "address"
        }
      ],
      "name": "setVoteDelegate",
      "outputs": [],
      "stateMutability": "nonpayable",
      "type": "function"
    },
    {
      "inputs": [
        {
          "internalType": "address",
          "name": "_rewards",
          "type": "address"
        },
        {
          "internalType": "address",
          "name": "_stakerRewards",
          "type": "address"
        }
      ],
      "name": "setRewardContracts",
      "outputs": [],
      "stateMutability": "nonpayable",
      "type": "function"
    },
    {
      "inputs": [],
      "name": "setFeeInfo",
      "outputs": [],
      "stateMutability": "nonpayable",
      "type": "function"
    },
    {
      "inputs": [
        {
          "internalType": "uint256",
          "name": "_lockFees",
          "type": "uint256"
        },
        {
          "internalType": "uint256",
          "name": "_stakerFees",
          "type": "uint256"
        },
        {
          "internalType": "uint256",
          "name": "_callerFees",
          "type": "uint256"
        },
        {
          "internalType": "uint256",
          "name": "_platform",
          "type": "uint256"
        }
      ],
      "name": "setFees",
      "outputs": [],
      "stateMutability": "nonpayable",
      "type": "function"
    },
    {
      "inputs": [
        {
          "internalType": "address",
          "name": "_treasury",
          "type": "address"
        }
      ],
      "name": "setTreasury",
      "outputs": [],
      "stateMutability": "nonpayable",
      "type": "function"
    },
    {
      "inputs": [],
      "name": "poolLength",
      "outputs": [
        {
          "internalType": "uint256",
          "name": "",
          "type": "uint256"
        }
      ],
      "stateMutability": "view",
      "type": "function",
      "constant": true
    },
    {
      "inputs": [
        {
          "internalType": "address",
          "name": "_lptoken",
          "type": "address"
        },
        {
          "internalType": "address",
          "name": "_gauge",
          "type": "address"
        },
        {
          "internalType": "uint256",
          "name": "_stashVersion",
          "type": "uint256"
        }
      ],
      "name": "addPool",
      "outputs": [
        {
          "internalType": "bool",
          "name": "",
          "type": "bool"
        }
      ],
      "stateMutability": "nonpayable",
      "type": "function"
    },
    {
      "inputs": [
        {
          "internalType": "uint256",
          "name": "_pid",
          "type": "uint256"
        }
      ],
      "name": "shutdownPool",
      "outputs": [
        {
          "internalType": "bool",
          "name": "",
          "type": "bool"
        }
      ],
      "stateMutability": "nonpayable",
      "type": "function"
    },
    {
      "inputs": [],
      "name": "shutdownSystem",
      "outputs": [],
      "stateMutability": "nonpayable",
      "type": "function"
    },
    {
      "inputs": [
        {
          "internalType": "uint256",
          "name": "_pid",
          "type": "uint256"
        },
        {
          "internalType": "uint256",
          "name": "_amount",
          "type": "uint256"
        },
        {
          "internalType": "bool",
          "name": "_stake",
          "type": "bool"
        }
      ],
      "name": "deposit",
      "outputs": [
        {
          "internalType": "bool",
          "name": "",
          "type": "bool"
        }
      ],
      "stateMutability": "nonpayable",
      "type": "function"
    },
    {
      "inputs": [
        {
          "internalType": "uint256",
          "name": "_pid",
          "type": "uint256"
        },
        {
          "internalType": "bool",
          "name": "_stake",
          "type": "bool"
        }
      ],
      "name": "depositAll",
      "outputs": [
        {
          "internalType": "bool",
          "name": "",
          "type": "bool"
        }
      ],
      "stateMutability": "nonpayable",
      "type": "function"
    },
    {
      "inputs": [
        {
          "internalType": "uint256",
          "name": "_pid",
          "type": "uint256"
        },
        {
          "internalType": "uint256",
          "name": "_amount",
          "type": "uint256"
        }
      ],
      "name": "withdraw",
      "outputs": [
        {
          "internalType": "bool",
          "name": "",
          "type": "bool"
        }
      ],
      "stateMutability": "nonpayable",
      "type": "function"
    },
    {
      "inputs": [
        {
          "internalType": "uint256",
          "name": "_pid",
          "type": "uint256"
        }
      ],
      "name": "withdrawAll",
      "outputs": [
        {
          "internalType": "bool",
          "name": "",
          "type": "bool"
        }
      ],
      "stateMutability": "nonpayable",
      "type": "function"
    },
    {
      "inputs": [
        {
          "internalType": "uint256",
          "name": "_pid",
          "type": "uint256"
        },
        {
          "internalType": "uint256",
          "name": "_amount",
          "type": "uint256"
        },
        {
          "internalType": "address",
          "name": "_to",
          "type": "address"
        }
      ],
      "name": "withdrawTo",
      "outputs": [
        {
          "internalType": "bool",
          "name": "",
          "type": "bool"
        }
      ],
      "stateMutability": "nonpayable",
      "type": "function"
    },
    {
      "inputs": [
        {
          "internalType": "uint256",
          "name": "_voteId",
          "type": "uint256"
        },
        {
          "internalType": "address",
          "name": "_votingAddress",
          "type": "address"
        },
        {
          "internalType": "bool",
          "name": "_support",
          "type": "bool"
        }
      ],
      "name": "vote",
      "outputs": [
        {
          "internalType": "bool",
          "name": "",
          "type": "bool"
        }
      ],
      "stateMutability": "nonpayable",
      "type": "function"
    },
    {
      "inputs": [
        {
          "internalType": "address[]",
          "name": "_gauge",
          "type": "address[]"
        },
        {
          "internalType": "uint256[]",
          "name": "_weight",
          "type": "uint256[]"
        }
      ],
      "name": "voteGaugeWeight",
      "outputs": [
        {
          "internalType": "bool",
          "name": "",
          "type": "bool"
        }
      ],
      "stateMutability": "nonpayable",
      "type": "function"
    },
    {
      "inputs": [
        {
          "internalType": "uint256",
          "name": "_pid",
          "type": "uint256"
        },
        {
          "internalType": "address",
          "name": "_gauge",
          "type": "address"
        }
      ],
      "name": "claimRewards",
      "outputs": [
        {
          "internalType": "bool",
          "name": "",
          "type": "bool"
        }
      ],
      "stateMutability": "nonpayable",
      "type": "function"
    },
    {
      "inputs": [
        {
          "internalType": "uint256",
          "name": "_pid",
          "type": "uint256"
        }
      ],
      "name": "setGaugeRedirect",
      "outputs": [
        {
          "internalType": "bool",
          "name": "",
          "type": "bool"
        }
      ],
      "stateMutability": "nonpayable",
      "type": "function"
    },
    {
      "inputs": [
        {
          "internalType": "uint256",
          "name": "_pid",
          "type": "uint256"
        }
      ],
      "name": "earmarkRewards",
      "outputs": [
        {
          "internalType": "bool",
          "name": "",
          "type": "bool"
        }
      ],
      "stateMutability": "nonpayable",
      "type": "function"
    },
    {
      "inputs": [],
      "name": "earmarkFees",
      "outputs": [
        {
          "internalType": "bool",
          "name": "",
          "type": "bool"
        }
      ],
      "stateMutability": "nonpayable",
      "type": "function"
    },
    {
      "inputs": [
        {
          "internalType": "uint256",
          "name": "_pid",
          "type": "uint256"
        },
        {
          "internalType": "address",
          "name": "_address",
          "type": "address"
        },
        {
          "internalType": "uint256",
          "name": "_amount",
          "type": "uint256"
        }
      ],
      "name": "rewardClaimed",
      "outputs": [
        {
          "internalType": "bool",
          "name": "",
          "type": "bool"
        }
      ],
      "stateMutability": "nonpayable",
      "type": "function"
    }
  ],
  "bytecode": "0x60c06040526103e86004556101c26005556032600655600060075534801561002657600080fd5b5060405161393f38038061393f833981810160405260c081101561004957600080fd5b5080516020820151604083015160608085015160808087015160a0978801516015805489871b6001600160601b031990811690955260088054336001600160a01b03199182168117909255600f805482168317905560098054821683179055600a8054821690921790915560148054821690556001600160a81b031990911690915560108054821690559487901b9092169097526000805484166001600160a01b03958616178155600180548516938616939093179092556002805484169785169790971790965560038054909216958316959095179055918216929116906137b49061018b90398061098452806119b0525080610b295280610d7e5280610eef5280610f6752806114e3528061164d52806117845280611dc8528061204b528061223a5280612629528061285652806129fc5280612e6952506137b46000f3fe608060405234801561001057600080fd5b50600436106103785760003560e01c80637303df9a116101d3578063b0eefabe11610104578063d0fb0203116100a2578063dc4c90d31161007c578063dc4c90d3146108fa578063e2cdd42a14610902578063e77772fe14610936578063f0f442601461093e57610378565b8063d0fb0203146108e2578063d6a0f530146108ea578063d73792a9146108f257610378565b8063bfad96ba116100de578063bfad96ba146107d5578063cb0d5b5214610897578063cc956f3f146108bd578063cfb9cfba146108da57610378565b8063b0eefabe1461079f578063b42eda71146107c5578063bf86d690146107cd57610378565b80639123d40411610171578063958e2d311161014b578063958e2d311461076a5780639f00332b14610787578063a386a0801461078f578063ab3662921461079757610378565b80639123d4041461071757806393e846a01461073457806395539a1d1461073c57610378565b80637b103999116101ad5780637b103999146106995780637bd3b995146106a15780637e29d6c2146106d95780638da5cb5b1461070f57610378565b80637303df9a14610645578063748743231461064d5780637aef67151461067357610378565b8063441a3e70116102ad57806361d027b31161024b5780636a4874a1116102255780636a4874a1146105b05780636c7b69cb146105b85780636fcba377146105e457806371192b171461061357610378565b806361d027b31461059857806362d28ac7146105a0578063647846a5146105a857610378565b80635a4ae5ca116102875780635a4ae5ca146105465780635ebaf1db1461054e57806360759fce1461055657806360cafe841461057b57610378565b8063441a3e70146104f5578063472d35b914610518578063509406181461053e57610378565b806322230b961161031a578063354af919116102f4578063354af919146104b2578063376d771a146104ba5780633a088cd2146104c257806343a0d066146104ca57610378565b806322230b961461049a578063245e4bf0146104a257806326232a2e146104aa57610378565b8063081e3eda11610356578063081e3eda146103b157806313af4035146103cb57806314cd70e4146103f35780631526fe271461043957610378565b8063043b684a1461037d578063068eb19e146103a157806307546172146103a9575b600080fd5b610385610964565b604080516001600160a01b039092168252519081900360200190f35b610385610973565b610385610982565b6103b96109a6565b60408051918252519081900360200190f35b6103f1600480360360208110156103e157600080fd5b50356001600160a01b03166109ac565b005b6104256004803603606081101561040957600080fd5b50803590602081013590604001356001600160a01b0316610a15565b604080519115158252519081900360200190f35b6104566004803603602081101561044f57600080fd5b5035610a99565b604080516001600160a01b0397881681529587166020870152938616858501529185166060850152909316608083015291151560a082015290519081900360c00190f35b610425610af7565b610385610c8d565b6103b9610c9c565b6103f1610ca2565b610385610e07565b6103b9610e16565b610425600480360360608110156104e057600080fd5b50803590602081013590604001351515610e1c565b6104256004803603604081101561050b57600080fd5b508035906020013561123f565b6103f16004803603602081101561052e57600080fd5b50356001600160a01b0316611257565b6103b96112c0565b6103f16112c6565b6103856114e1565b6104256004803603604081101561056c57600080fd5b50803590602001351515611505565b6104256004803603602081101561059157600080fd5b50356115b2565b6103856116e4565b6103b96116f3565b6103856116f9565b610385611708565b610425600480360360408110156105ce57600080fd5b50803590602001356001600160a01b0316611717565b6103f1600480360360808110156105fa57600080fd5b5080359060208101359060408101359060600135611813565b6104256004803603606081101561062957600080fd5b508035906001600160a01b03602082013516906040013561192e565b6103b9611a48565b6103f16004803603602081101561066357600080fd5b50356001600160a01b0316611a4e565b6103f16004803603602081101561068957600080fd5b50356001600160a01b0316611ab7565b610385611b20565b6103f1600480360360608110156106b757600080fd5b506001600160a01b038135811691602081013582169160409091013516611b2f565b610425600480360360608110156106ef57600080fd5b506001600160a01b03813581169160208101359091169060400135611bdb565b610385612125565b6104256004803603602081101561072d57600080fd5b5035612134565b6103b96123dd565b6103f16004803603604081101561075257600080fd5b506001600160a01b03813581169160200135166123e2565b6104256004803603602081101561078057600080fd5b503561246e565b61038561251d565b61038561252c565b61038561253b565b6103f1600480360360208110156107b557600080fd5b50356001600160a01b031661254a565b6103856125b3565b6104256125c2565b610425600480360360408110156107eb57600080fd5b81019060208101813564010000000081111561080657600080fd5b82018360208201111561081857600080fd5b8035906020019184602083028401116401000000008311171561083a57600080fd5b91939092909160208101903564010000000081111561085857600080fd5b82018360208201111561086a57600080fd5b8035906020019184602083028401116401000000008311171561088c57600080fd5b5090925090506125d2565b610425600480360360208110156108ad57600080fd5b50356001600160a01b03166126ef565b610425600480360360208110156108d357600080fd5b5035612704565b610385612762565b610385612771565b610385612780565b6103b961278f565b610385612795565b6104256004803603606081101561091857600080fd5b508035906001600160a01b03602082013516906040013515156127a4565b6103856128d5565b6103f16004803603602081101561095457600080fd5b50356001600160a01b03166128e4565b600e546001600160a01b031681565b600c546001600160a01b031681565b7f000000000000000000000000000000000000000000000000000000000000000081565b60165490565b6008546001600160a01b031633146109f3576040805162461bcd60e51b8152602060048201526005602482015264042c2eae8d60db1b604482015290519081900360640190fd5b600880546001600160a01b0319166001600160a01b0392909216919091179055565b60008060168581548110610a2557fe5b60009182526020909120600360059092020101546001600160a01b03169050338114610a80576040805162461bcd60e51b8152602060048201526005602482015264042c2eae8d60db1b604482015290519081900360640190fd5b610a8c8585338661294d565b60019150505b9392505050565b60168181548110610aa657fe5b6000918252602090912060059091020180546001820154600283015460038401546004909401546001600160a01b03938416955091831693908316929081169190811690600160a01b900460ff1686565b60145460155460408051632dbfa73560e01b81526001600160a01b0393841660048201529183166024830152516000927f00000000000000000000000000000000000000000000000000000000000000001691632dbfa735916044808301928692919082900301818387803b158015610b6f57600080fd5b505af1158015610b83573d6000803e3d6000fd5b5050601554604080516370a0823160e01b81523060048201529051600094506001600160a01b0390921692506370a08231916024808301926020929190829003018186803b158015610bd457600080fd5b505afa158015610be8573d6000803e3d6000fd5b505050506040513d6020811015610bfe57600080fd5b5051601354601554919250610c20916001600160a01b03908116911683612ba6565b6013546040805163590a41f560e01b81526004810184905290516001600160a01b039092169163590a41f59160248082019260009290919082900301818387803b158015610c6d57600080fd5b505af1158015610c81573d6000803e3d6000fd5b50505050600191505090565b600b546001600160a01b031681565b60075481565b6008546001600160a01b03163314610ce9576040805162461bcd60e51b8152602060048201526005602482015264042c2eae8d60db1b604482015290519081900360640190fd5b6015805460ff60a01b1916600160a01b17905560005b601654811015610e0457600060168281548110610d1857fe5b906000526020600020906005020190508060040160149054906101000a900460ff1615610d455750610dfc565b80546002820154604080516301395c5960e31b81526001600160a01b0393841660048201819052928416602482018190529151929391927f0000000000000000000000000000000000000000000000000000000000000000909216916309cae2c89160448082019260009290919082900301818387803b158015610dc857600080fd5b505af1925050508015610dd9575060015b610de257610df8565b60048301805460ff60a01b1916600160a01b1790555b5050505b600101610cff565b50565b6012546001600160a01b031681565b60065481565b601554600090600160a01b900460ff1615610e69576040805162461bcd60e51b815260206004820152600860248201526739b43aba3237bbb760c11b604482015290519081900360640190fd5b600060168581548110610e7857fe5b600091825260209091206005909102016004810154909150600160a01b900460ff1615610edd576040805162461bcd60e51b815260206004820152600e60248201526d1c1bdbdb081a5cc818db1bdcd95960921b604482015290519081900360640190fd5b80546001600160a01b0316610f1481337f000000000000000000000000000000000000000000000000000000000000000088612bfd565b60028201546001600160a01b031680610f65576040805162461bcd60e51b815260206004820152600e60248201526d2167617567652073657474696e6760901b604482015290519081900360640190fd5b7f00000000000000000000000000000000000000000000000000000000000000006001600160a01b031663f9609f0883836040518363ffffffff1660e01b815260040180836001600160a01b03168152602001826001600160a01b0316815260200192505050600060405180830381600087803b158015610fe557600080fd5b505af1158015610ff9573d6000803e3d6000fd5b5050505060048301546001600160a01b0316801561107957806001600160a01b031663b87bd4816040518163ffffffff1660e01b8152600401602060405180830381600087803b15801561104c57600080fd5b505af1158015611060573d6000803e3d6000fd5b505050506040513d602081101561107657600080fd5b50505b60018401546001600160a01b0316861561119257604080516340c10f1960e01b8152306004820152602481018a905290516001600160a01b038316916340c10f1991604480830192600092919082900301818387803b1580156110db57600080fd5b505af11580156110ef573d6000803e3d6000fd5b50505060038601546001600160a01b039081169150611112908316826000612c5d565b6111266001600160a01b038316828b612c5d565b604080516305dc812160e31b8152336004820152602481018b905290516001600160a01b03831691632ee4090891604480830192600092919082900301818387803b15801561117457600080fd5b505af1158015611188573d6000803e3d6000fd5b50505050506111f9565b604080516340c10f1960e01b8152336004820152602481018a905290516001600160a01b038316916340c10f1991604480830192600092919082900301818387803b1580156111e057600080fd5b505af11580156111f4573d6000803e3d6000fd5b505050505b6040805189815290518a9133917f73a19dd210f1a7f902193214c0ee91dd35ee5b4d920cba8d519eca65a7b488ca9181900360200190a350600198975050505050505050565b600061124d8383333361294d565b5060015b92915050565b6009546001600160a01b0316331461129e576040805162461bcd60e51b8152602060048201526005602482015264042c2eae8d60db1b604482015290519081900360640190fd5b600980546001600160a01b0319166001600160a01b0392909216919091179055565b60045481565b6009546001600160a01b0316331461130d576040805162461bcd60e51b8152602060048201526005602482015264042c2eae8d60db1b604482015290519081900360640190fd5b6001546040805163124fd3dd60e21b815260048181015290516001600160a01b039092169163493f4f7491602480820192602092909190829003018186803b15801561135857600080fd5b505afa15801561136c573d6000803e3d6000fd5b505050506040513d602081101561138257600080fd5b5051601480546001600160a01b0319166001600160a01b03928316179081905560408051637e062a3560e11b81529051600093929092169163fc0c546a91600480820192602092909190829003018186803b1580156113e057600080fd5b505afa1580156113f4573d6000803e3d6000fd5b505050506040513d602081101561140a57600080fd5b50516015549091506001600160a01b03808316911614610e0457600b5460125460408051637c6b091760e11b81526001600160a01b03858116600483015292831660248201523060448201529051919092169163f8d6122e9160648083019260209291908290030181600087803b15801561148457600080fd5b505af1158015611498573d6000803e3d6000fd5b505050506040513d60208110156114ae57600080fd5b5051601380546001600160a01b039283166001600160a01b03199182161790915560158054939092169216919091179055565b7f000000000000000000000000000000000000000000000000000000000000000081565b6000806016848154811061151557fe5b60009182526020808320600590920290910154604080516370a0823160e01b815233600482015290516001600160a01b03909216945084926370a0823192602480840193829003018186803b15801561156d57600080fd5b505afa158015611581573d6000803e3d6000fd5b505050506040513d602081101561159757600080fd5b505190506115a6858286610e1c565b50600195945050505050565b600a546000906001600160a01b031633146115fc576040805162461bcd60e51b8152602060048201526005602482015264042c2eae8d60db1b604482015290519081900360640190fd5b60006016838154811061160b57fe5b60009182526020822060059091020180546002820154604080516301395c5960e31b81526001600160a01b0393841660048201529183166024830152519294507f000000000000000000000000000000000000000000000000000000000000000091909116926309cae2c89260448084019382900301818387803b15801561169257600080fd5b505af19250505080156116a3575060015b5060048101805460ff60a01b1916600160a01b179055600201546001600160a01b03166000908152601760205260409020805460ff19169055506001919050565b6010546001600160a01b031681565b60055481565b6015546001600160a01b031681565b6000546001600160a01b031681565b6000806016848154811061172757fe5b60009182526020909120600460059092020101546001600160a01b03169050338114611782576040805162461bcd60e51b8152602060048201526005602482015264042c2eae8d60db1b604482015290519081900360640190fd5b7f00000000000000000000000000000000000000000000000000000000000000006001600160a01b031663ef5cfb8c846040518263ffffffff1660e01b815260040180826001600160a01b03168152602001915050600060405180830381600087803b1580156117f157600080fd5b505af1158015611805573d6000803e3d6000fd5b506001979650505050505050565b6009546001600160a01b0316331461185a576040805162461bcd60e51b8152602060048201526005602482015264042c2eae8d60db1b604482015290519081900360640190fd5b60006118728261186c85818989612d70565b90612d70565b90506107d08111156118b6576040805162461bcd60e51b81526020600482015260086024820152673e4d61784665657360c01b604482015290519081900360640190fd5b6103e885101580156118ca57506105dc8511155b80156118d8575061012c8410155b80156118e657506102588411155b80156118f35750600a8310155b8015611900575060648311155b801561190d575060c88211155b156119275760048590556005849055600683905560078290555b5050505050565b6000806016858154811061193e57fe5b60009182526020909120600360059092020101546001600160a01b031690503381148061197557506012546001600160a01b031633145b6119ae576040805162461bcd60e51b8152602060048201526005602482015264042c2eae8d60db1b604482015290519081900360640190fd5b7f00000000000000000000000000000000000000000000000000000000000000006001600160a01b03166340c10f1985856040518363ffffffff1660e01b815260040180836001600160a01b0316815260200182815260200192505050600060405180830381600087803b158015611a2557600080fd5b505af1158015611a39573d6000803e3d6000fd5b50600198975050505050505050565b6107d081565b600f546001600160a01b03163314611a95576040805162461bcd60e51b8152602060048201526005602482015264042c2eae8d60db1b604482015290519081900360640190fd5b600f80546001600160a01b0319166001600160a01b0392909216919091179055565b600a546001600160a01b03163314611afe576040805162461bcd60e51b8152602060048201526005602482015264042c2eae8d60db1b604482015290519081900360640190fd5b600a80546001600160a01b0319166001600160a01b0392909216919091179055565b6001546001600160a01b031681565b6008546001600160a01b03163314611b76576040805162461bcd60e51b8152602060048201526005602482015264042c2eae8d60db1b604482015290519081900360640190fd5b600b546001600160a01b0316611bb757600b80546001600160a01b038086166001600160a01b031992831617909255600d8054928416929091169190911790555b50600c80546001600160a01b0319166001600160a01b039290921691909117905550565b600a546000906001600160a01b031633148015611c025750601554600160a01b900460ff16155b611c3c576040805162461bcd60e51b815260206004808301919091526024820152630858591960e21b604482015290519081900360640190fd5b6001600160a01b03831615801590611c5c57506001600160a01b03841615155b611c96576040805162461bcd60e51b815260206004820152600660248201526521706172616d60d01b604482015290519081900360640190fd5b601654600d5460408051630452a26760e21b81526001600160a01b0388811660048301529151600093929092169163114a899c9160248082019260209290919082900301818787803b158015611ceb57600080fd5b505af1158015611cff573d6000803e3d6000fd5b505050506040513d6020811015611d1557600080fd5b5051600b54604080516358cbfd4560e01b8152600481018690526001600160a01b038085166024830152915193945060009391909216916358cbfd4591604480830192602092919082900301818787803b158015611d7257600080fd5b505af1158015611d86573d6000803e3d6000fd5b505050506040513d6020811015611d9c57600080fd5b5051600c5460408051634ce5896f60e11b8152600481018790526001600160a01b038a811660248301527f000000000000000000000000000000000000000000000000000000000000000081166044830152606482018a9052915193945060009391909216916399cb12de91608480830192602092919082900301818787803b158015611e2857600080fd5b505af1158015611e3c573d6000803e3d6000fd5b505050506040513d6020811015611e5257600080fd5b50516040805160c0810182526001600160a01b03808c16825286811660208381019182528c83168486018181528985166060870190815285891660808801818152600060a08a0181815260168054600181810183559184529b516005909c027fd833147d7dc355ba459fc788f669e58cfaf9dc25ddcd0702e87d69c7b5124289810180549d8d166001600160a01b03199e8f1617905599517fd833147d7dc355ba459fc788f669e58cfaf9dc25ddcd0702e87d69c7b512428a8b018054918d16918e1691909117905595517fd833147d7dc355ba459fc788f669e58cfaf9dc25ddcd0702e87d69c7b512428b8a018054918c16918d1691909117905593517fd833147d7dc355ba459fc788f669e58cfaf9dc25ddcd0702e87d69c7b512428c89018054918b16918c1691909117905590517fd833147d7dc355ba459fc788f669e58cfaf9dc25ddcd0702e87d69c7b512428d909701805493511515600160a01b0260ff60a01b199890991693909916929092179590951695909517909555835260179052929020805460ff1916909117905590915015611805578060168581548110611ffa57fe5b6000918252602082206004600590920201810180546001600160a01b039485166001600160a01b031990911617905560408051637d1cb25960e11b81528585169281019290925260016024830152517f00000000000000000000000000000000000000000000000000000000000000009093169263fa3964b29260448084019391929182900301818387803b15801561209257600080fd5b505af11580156120a6573d6000803e3d6000fd5b5050600b546040805163b84614a560e01b81526001600160a01b03868116600483015260016024830152915191909216935063b84614a59250604480830192600092919082900301818387803b1580156120ff57600080fd5b505af1158015612113573d6000803e3d6000fd5b50505050506001979650505050505050565b6008546001600160a01b031681565b6000806016838154811061214457fe5b60009182526020909120600460059092020101546001600160a01b0316905033811461219f576040805162461bcd60e51b8152602060048201526005602482015264042c2eae8d60db1b604482015290519081900360640190fd5b6000601684815481106121ae57fe5b6000918252602080832060026005909302019190910154604080516001600160a01b038781166024808401919091528351808403820181526044938401855295860180516001600160e01b0316635efcc08b60e11b1781529351635b0e93fb60e11b815294821660048601818152918601889052606093860193845286516064870152865190985095967f00000000000000000000000000000000000000000000000000000000000000009092169563b61d27f6958995939489949092608490920191808383895b8381101561228e578181015183820152602001612276565b50505050905090810190601f1680156122bb5780820380516001836020036101000a031916815260200191505b50945050505050600060405180830381600087803b1580156122dc57600080fd5b505af11580156122f0573d6000803e3d6000fd5b505050506040513d6000823e601f3d908101601f19168201604090815281101561231957600080fd5b81516020830180516040519294929383019291908464010000000082111561234057600080fd5b90830190602082018581111561235557600080fd5b825164010000000081118282018810171561236f57600080fd5b82525081516020918201929091019080838360005b8381101561239c578181015183820152602001612384565b50505050905090810190601f1680156123c95780820380516001836020036101000a031916815260200191505b506040525060019998505050505050505050565b600481565b6008546001600160a01b03163314612429576040805162461bcd60e51b8152602060048201526005602482015264042c2eae8d60db1b604482015290519081900360640190fd5b6012546001600160a01b031661246a57601280546001600160a01b038085166001600160a01b03199283161790925560118054928416929091169190911790555b5050565b6000806016838154811061247e57fe5b6000918252602080832060016005909302019190910154604080516370a0823160e01b815233600482015290516001600160a01b03909216945084926370a0823192602480840193829003018186803b1580156124da57600080fd5b505afa1580156124ee573d6000803e3d6000fd5b505050506040513d602081101561250457600080fd5b50519050612512848261123f565b506001949350505050565b600f546001600160a01b031681565b6002546001600160a01b031681565b6013546001600160a01b031681565b6008546001600160a01b03163314612591576040805162461bcd60e51b8152602060048201526005602482015264042c2eae8d60db1b604482015290519081900360640190fd5b600e80546001600160a01b0319166001600160a01b0392909216919091179055565b6003546001600160a01b031681565b601554600160a01b900460ff1681565b600f546000906001600160a01b0316331461261c576040805162461bcd60e51b8152602060048201526005602482015264042c2eae8d60db1b604482015290519081900360640190fd5b60005b848110156115a6577f00000000000000000000000000000000000000000000000000000000000000006001600160a01b0316635d7e9bcb87878481811061266257fe5b905060200201356001600160a01b031686868581811061267e57fe5b905060200201356040518363ffffffff1660e01b815260040180836001600160a01b0316815260200182815260200192505050600060405180830381600087803b1580156126cb57600080fd5b505af11580156126df573d6000803e3d6000fd5b50506001909201915061261f9050565b60176020526000908152604090205460ff1681565b601554600090600160a01b900460ff1615612751576040805162461bcd60e51b815260206004820152600860248201526739b43aba3237bbb760c11b604482015290519081900360640190fd5b61275a82612dca565b506001919050565b6011546001600160a01b031681565b6009546001600160a01b031681565b6014546001600160a01b031681565b61271081565b600a546001600160a01b031681565b600f546000906001600160a01b031633146127ee576040805162461bcd60e51b8152602060048201526005602482015264042c2eae8d60db1b604482015290519081900360640190fd5b6002546001600160a01b038481169116148061281757506003546001600160a01b038481169116145b612854576040805162461bcd60e51b815260206004820152600960248201526810bb37ba32a0b2323960b91b604482015290519081900360640190fd5b7f00000000000000000000000000000000000000000000000000000000000000006001600160a01b031663e2cdd42a8585856040518463ffffffff1660e01b815260040180848152602001836001600160a01b0316815260200182151581526020019350505050600060405180830381600087803b1580156117f157600080fd5b600d546001600160a01b031681565b6009546001600160a01b0316331461292b576040805162461bcd60e51b8152602060048201526005602482015264042c2eae8d60db1b604482015290519081900360640190fd5b601080546001600160a01b0319166001600160a01b0392909216919091179055565b60006016858154811061295c57fe5b60009182526020822060059091020180546002820154600183015460408051632770a7eb60e21b81526001600160a01b038a81166004830152602482018c9052915195975093811695928116949116928392639dc29fac9260448084019382900301818387803b1580156129cf57600080fd5b505af11580156129e3573d6000803e3d6000fd5b505050506004840154600160a01b900460ff16612a9b577f00000000000000000000000000000000000000000000000000000000000000006001600160a01b031663d9caed1284848a6040518463ffffffff1660e01b815260040180846001600160a01b03168152602001836001600160a01b031681526020018281526020019350505050600060405180830381600087803b158015612a8257600080fd5b505af1158015612a96573d6000803e3d6000fd5b505050505b60048401546001600160a01b03168015801590612ac25750601554600160a01b900460ff16155b8015612ada57506004850154600160a01b900460ff16155b15612b4757806001600160a01b031663b87bd4816040518163ffffffff1660e01b8152600401602060405180830381600087803b158015612b1a57600080fd5b505af1158015612b2e573d6000803e3d6000fd5b505050506040513d6020811015612b4457600080fd5b50505b612b5b6001600160a01b038516878a612ba6565b6040805189815290518a916001600160a01b038916917f92ccf450a286a957af52509bc1c9939d1a6a481783e142e41e2499f0bb66ebc69181900360200190a3505050505050505050565b604080516001600160a01b038416602482015260448082018490528251808303909101815260649091019091526020810180516001600160e01b031663a9059cbb60e01b179052612bf89084906132ec565b505050565b604080516001600160a01b0380861660248301528416604482015260648082018490528251808303909101815260849091019091526020810180516001600160e01b03166323b872dd60e01b179052612c579085906132ec565b50505050565b801580612ce3575060408051636eb1769f60e11b81523060048201526001600160a01b03848116602483015291519185169163dd62ed3e91604480820192602092909190829003018186803b158015612cb557600080fd5b505afa158015612cc9573d6000803e3d6000fd5b505050506040513d6020811015612cdf57600080fd5b5051155b612d1e5760405162461bcd60e51b81526004018080602001828103825260368152602001806137496036913960400191505060405180910390fd5b604080516001600160a01b038416602482015260448082018490528251808303909101815260649091019091526020810180516001600160e01b031663095ea7b360e01b179052612bf89084906132ec565b600082820183811015610a92576040805162461bcd60e51b815260206004820152601b60248201527f536166654d6174683a206164646974696f6e206f766572666c6f770000000000604482015290519081900360640190fd5b600060168281548110612dd957fe5b600091825260209091206005909102016004810154909150600160a01b900460ff1615612e3e576040805162461bcd60e51b815260206004820152600e60248201526d1c1bdbdb081a5cc818db1bdcd95960921b604482015290519081900360640190fd5b600281015460408051631ff4de0360e11b81526001600160a01b0392831660048201819052915191927f00000000000000000000000000000000000000000000000000000000000000001691633fe9bc06916024808201926020929091908290030181600087803b158015612eb257600080fd5b505af1158015612ec6573d6000803e3d6000fd5b505050506040513d6020811015612edc57600080fd5b505060048201546001600160a01b03168015612fc857806001600160a01b031663372500ab6040518163ffffffff1660e01b8152600401602060405180830381600087803b158015612f2d57600080fd5b505af1158015612f41573d6000803e3d6000fd5b505050506040513d6020811015612f5757600080fd5b50506040805163654580bb60e11b815290516001600160a01b0383169163ca8b01769160048083019260209291908290030181600087803b158015612f9b57600080fd5b505af1158015612faf573d6000803e3d6000fd5b505050506040513d6020811015612fc557600080fd5b50505b60008054604080516370a0823160e01b815230600482015290516001600160a01b03909216916370a0823191602480820192602092909190829003018186803b15801561301457600080fd5b505afa158015613028573d6000803e3d6000fd5b505050506040513d602081101561303e57600080fd5b50519050801561192757600061306b6127106130656004548561339d90919063ffffffff16565b906133f6565b9050600061308a6127106130656005548661339d90919063ffffffff16565b905060006130a96127106130656006548761339d90919063ffffffff16565b6010549091506001600160a01b0316158015906130d157506010546001600160a01b03163014155b80156130df57506000600754115b1561312f5760006131016127106130656007548861339d90919063ffffffff16565b905061310d858261345d565b60105460005491965061312d916001600160a01b03908116911683612ba6565b505b6131458261313f8381888861345d565b9061345d565b60005490945061315f906001600160a01b03163383612ba6565b60038701546000546001600160a01b039182169161317f91168287612ba6565b806001600160a01b031663590a41f5866040518263ffffffff1660e01b815260040180828152602001915050600060405180830381600087803b1580156131c557600080fd5b505af11580156131d9573d6000803e3d6000fd5b50506012546000546131fa93506001600160a01b0390811692501686612ba6565b6012546040805163590a41f560e01b81526004810187905290516001600160a01b039092169163590a41f59160248082019260009290919082900301818387803b15801561324757600080fd5b505af115801561325b573d6000803e3d6000fd5b505060115460005461327c93506001600160a01b0390811692501685612ba6565b6011546040805163590a41f560e01b81526004810186905290516001600160a01b039092169163590a41f59160248082019260009290919082900301818387803b1580156132c957600080fd5b505af11580156132dd573d6000803e3d6000fd5b50505050505050505050505050565b6060613341826040518060400160405280602081526020017f5361666545524332303a206c6f772d6c6576656c2063616c6c206661696c6564815250856001600160a01b03166134ba9092919063ffffffff16565b805190915015612bf85780806020019051602081101561336057600080fd5b5051612bf85760405162461bcd60e51b815260040180806020018281038252602a81526020018061371f602a913960400191505060405180910390fd5b6000826133ac57506000611251565b828202828482816133b957fe5b0414610a925760405162461bcd60e51b81526004018080602001828103825260218152602001806136fe6021913960400191505060405180910390fd5b600080821161344c576040805162461bcd60e51b815260206004820152601a60248201527f536166654d6174683a206469766973696f6e206279207a65726f000000000000604482015290519081900360640190fd5b81838161345557fe5b049392505050565b6000828211156134b4576040805162461bcd60e51b815260206004820152601e60248201527f536166654d6174683a207375627472616374696f6e206f766572666c6f770000604482015290519081900360640190fd5b50900390565b60606134c984846000856134d1565b949350505050565b6060824710156135125760405162461bcd60e51b81526004018080602001828103825260268152602001806136d86026913960400191505060405180910390fd5b61351b8561362d565b61356c576040805162461bcd60e51b815260206004820152601d60248201527f416464726573733a2063616c6c20746f206e6f6e2d636f6e7472616374000000604482015290519081900360640190fd5b60006060866001600160a01b031685876040518082805190602001908083835b602083106135ab5780518252601f19909201916020918201910161358c565b6001836020036101000a03801982511681845116808217855250505050505090500191505060006040518083038185875af1925050503d806000811461360d576040519150601f19603f3d011682016040523d82523d6000602084013e613612565b606091505b5091509150613622828286613633565b979650505050505050565b3b151590565b60608315613642575081610a92565b8251156136525782518084602001fd5b8160405162461bcd60e51b81526004018080602001828103825283818151815260200191508051906020019080838360005b8381101561369c578181015183820152602001613684565b50505050905090810190601f1680156136c95780820380516001836020036101000a031916815260200191505b509250505060405180910390fdfe416464726573733a20696e73756666696369656e742062616c616e636520666f722063616c6c536166654d6174683a206d756c7469706c69636174696f6e206f766572666c6f775361666545524332303a204552433230206f7065726174696f6e20646964206e6f7420737563636565645361666545524332303a20617070726f76652066726f6d206e6f6e2d7a65726f20746f206e6f6e2d7a65726f20616c6c6f77616e6365a2646970667358221220c474dc9183d36853cf94b4eeb2afece43f023cfb70bb5f6a18428dcc0bd0ad3364736f6c634300060c0033",
  "immutableReferences": {
    "1161": [
      {
        "length": 32,
        "start": 2857
      },
      {
        "length": 32,
        "start": 3454
      },
      {
        "length": 32,
        "start": 3823
      },
      {
        "length": 32,
        "start": 3943
      },
      {
        "length": 32,
        "start": 5347
      },
      {
        "length": 32,
        "start": 5709
      },
      {
        "length": 32,
        "start": 6020
      },
      {
        "length": 32,
        "start": 7624
      },
      {
        "length": 32,
        "start": 8267
      },
      {
        "length": 32,
        "start": 8762
      },
      {
        "length": 32,
        "start": 9769
      },
      {
        "length": 32,
        "start": 10326
      },
      {
        "length": 32,
        "start": 10748
      },
      {
        "length": 32,
        "start": 11881
      }
    ],
    "1163": [
      {
        "length": 32,
        "start": 2436
      },
      {
        "length": 32,
        "start": 6576
      }
    ]
  },
  "source": "// SPDX-License-Identifier: MIT\npragma solidity 0.6.12;\n\nimport \"./Interfaces.sol\";\nimport '@openzeppelin/contracts/math/SafeMath.sol';\nimport '@openzeppelin/contracts/token/ERC20/IERC20.sol';\nimport '@openzeppelin/contracts/utils/Address.sol';\nimport '@openzeppelin/contracts/token/ERC20/SafeERC20.sol';\n\n\ncontract Booster{\n    using SafeERC20 for IERC20;\n    using Address for address;\n    using SafeMath for uint256;\n\n    address public crv;\n    address public registry;\n    uint256 public constant distributionAddressId = 4;\n    address public voteOwnership;\n    address public voteParameter;\n\n    uint256 public lockIncentive = 1000; //incentive to crv stakers\n    uint256 public stakerIncentive = 450; //incentive to native token stakers\n    uint256 public earmarkIncentive = 50; //incentive to users who spend gas to make calls\n    uint256 public platformFee = 0; //possible fee to build treasury\n    uint256 public constant MaxFees = 2000;\n    uint256 public constant FEE_DENOMINATOR = 10000;\n\n    address public owner;\n    address public feeManager;\n    address public poolManager;\n    address public immutable staker;\n    address public immutable minter;\n    address public rewardFactory;\n    address public stashFactory;\n    address public tokenFactory;\n    address public rewardArbitrator;\n    address public voteDelegate;\n    address public treasury;\n    address public stakerRewards; //cvx rewards\n    address public lockRewards; //cvxCrv rewards(crv)\n    address public lockFees; //cvxCrv vecrv fees\n    address public feeDistro;\n    address public feeToken;\n\n    bool public isShutdown;\n\n    struct PoolInfo {\n        address lptoken;\n        address token;\n        address gauge;\n        address crvRewards;\n        address stash;\n        bool shutdown;\n    }\n\n    //index(pid) -> pool\n    PoolInfo[] public poolInfo;\n    mapping(address => bool) public gaugeMap;\n\n    event Deposited(address indexed user, uint256 indexed poolid, uint256 amount);\n    event Withdrawn(address indexed user, uint256 indexed poolid, uint256 amount);\n\n    constructor(\n        address _staker,\n        address _minter,\n        address _crv,\n        address _registry,\n        address _voteOwnership,\n        address _voteParameter\n    ) public {\n        isShutdown = false;\n        staker = _staker;\n        owner = msg.sender;\n        voteDelegate = msg.sender;\n        feeManager = msg.sender;\n        poolManager = msg.sender;\n        feeDistro = address(0); //address(0xA464e6DCda8AC41e03616F95f4BC98a13b8922Dc);\n        feeToken = address(0); //address(0x6c3F90f043a72FA612cbac8115EE7e52BDe6E490);\n        treasury = address(0);\n        minter = _minter;\n        crv = _crv;\n        registry = _registry;\n        voteOwnership = _voteOwnership;\n        voteParameter = _voteParameter;\n    }\n\n\n    /// SETTER SECTION ///\n\n    function setOwner(address _owner) external {\n        require(msg.sender == owner, \"!auth\");\n        owner = _owner;\n    }\n\n    function setFeeManager(address _feeM) external {\n        require(msg.sender == feeManager, \"!auth\");\n        feeManager = _feeM;\n    }\n\n    function setPoolManager(address _poolM) external {\n        require(msg.sender == poolManager, \"!auth\");\n        poolManager = _poolM;\n    }\n\n    function setFactories(address _rfactory, address _sfactory, address _tfactory) external {\n        require(msg.sender == owner, \"!auth\");\n        \n        //reward factory only allow this to be called once even if owner\n        //removes ability to inject malicious staking contracts\n        //token factory can also be immutable\n        if(rewardFactory == address(0)){\n            rewardFactory = _rfactory;\n            tokenFactory = _tfactory;\n        }\n\n        //stash factory should be considered more safe to change\n        //updating may be required to handle new types of gauges\n        stashFactory = _sfactory;\n    }\n\n    function setArbitrator(address _arb) external {\n        require(msg.sender==owner, \"!auth\");\n        rewardArbitrator = _arb;\n    }\n\n    function setVoteDelegate(address _voteDelegate) external {\n        require(msg.sender==voteDelegate, \"!auth\");\n        voteDelegate = _voteDelegate;\n    }\n\n    function setRewardContracts(address _rewards, address _stakerRewards) external {\n        require(msg.sender == owner, \"!auth\");\n        \n        //reward contracts are immutable or else the owner\n        //has a means to redeploy and mint cvx via rewardClaimed()\n        if(lockRewards == address(0)){\n            lockRewards = _rewards;\n            stakerRewards = _stakerRewards;\n        }\n    }\n\n    // Set reward token and claim contract, get from Curve's registry\n    function setFeeInfo() external {\n        require(msg.sender==feeManager, \"!auth\");\n        \n        feeDistro = IRegistry(registry).get_address(distributionAddressId);\n        address _feeToken = IFeeDistro(feeDistro).token();\n        if(feeToken != _feeToken){\n            //create a new reward contract for the new token\n            lockFees = IRewardFactory(rewardFactory).CreateTokenRewards(_feeToken,lockRewards,address(this));\n            feeToken = _feeToken;\n        }\n    }\n\n    function setFees(uint256 _lockFees, uint256 _stakerFees, uint256 _callerFees, uint256 _platform) external{\n        require(msg.sender==feeManager, \"!auth\");\n\n        uint256 total = _lockFees.add(_stakerFees).add(_callerFees).add(_platform);\n        require(total <= MaxFees, \">MaxFees\");\n\n        //values must be within certain ranges     \n        if(_lockFees >= 1000 && _lockFees <= 1500\n            && _stakerFees >= 300 && _stakerFees <= 600\n            && _callerFees >= 10 && _callerFees <= 100\n            && _platform <= 200){\n            lockIncentive = _lockFees;\n            stakerIncentive = _stakerFees;\n            earmarkIncentive = _callerFees;\n            platformFee = _platform;\n        }\n    }\n\n    function setTreasury(address _treasury) external {\n        require(msg.sender==feeManager, \"!auth\");\n        treasury = _treasury;\n    }\n\n    /// END SETTER SECTION ///\n\n\n    function poolLength() external view returns (uint256) {\n        return poolInfo.length;\n    }\n\n    //create a new pool\n    function addPool(address _lptoken, address _gauge, uint256 _stashVersion) external returns(bool){\n        require(msg.sender==poolManager && !isShutdown, \"!add\");\n        require(_gauge != address(0) && _lptoken != address(0),\"!param\");\n\n        //the next pool's pid\n        uint256 pid = poolInfo.length;\n\n        //create a tokenized deposit\n        address token = ITokenFactory(tokenFactory).CreateDepositToken(_lptoken);\n        //create a reward contract for crv rewards\n        address newRewardPool = IRewardFactory(rewardFactory).CreateCrvRewards(pid,token);\n        //create a stash to handle extra incentives\n        address stash = IStashFactory(stashFactory).CreateStash(pid,_gauge,staker,_stashVersion);\n\n        //add the new pool\n        poolInfo.push(\n            PoolInfo({\n                lptoken: _lptoken,\n                token: token,\n                gauge: _gauge,\n                crvRewards: newRewardPool,\n                stash: stash,\n                shutdown: false\n            })\n        );\n        gaugeMap[_gauge] = true;\n        //give stashes access to rewardfactory and voteproxy\n        //   voteproxy so it can grab the incentive tokens off the contract after claiming rewards\n        //   reward factory so that stashes can make new extra reward contracts if a new incentive is added to the gauge\n        if(stash != address(0)){\n            poolInfo[pid].stash = stash;\n            IStaker(staker).setStashAccess(stash,true);\n            IRewardFactory(rewardFactory).setAccess(stash,true);\n        }\n        return true;\n    }\n\n    //shutdown pool\n    function shutdownPool(uint256 _pid) external returns(bool){\n        require(msg.sender==poolManager, \"!auth\");\n        PoolInfo storage pool = poolInfo[_pid];\n\n        //withdraw from gauge\n        try IStaker(staker).withdrawAll(pool.lptoken,pool.gauge){\n        }catch{}\n\n        pool.shutdown = true;\n        gaugeMap[pool.gauge] = false;\n        return true;\n    }\n\n    //shutdown this contract.\n    //  unstake and pull all lp tokens to this address\n    //  only allow withdrawals\n    function shutdownSystem() external{\n        require(msg.sender == owner, \"!auth\");\n        isShutdown = true;\n\n        for(uint i=0; i < poolInfo.length; i++){\n            PoolInfo storage pool = poolInfo[i];\n            if (pool.shutdown) continue;\n\n            address token = pool.lptoken;\n            address gauge = pool.gauge;\n\n            //withdraw from gauge\n            try IStaker(staker).withdrawAll(token,gauge){\n                pool.shutdown = true;\n            }catch{}\n        }\n    }\n\n\n    //deposit lp tokens and stake\n    function deposit(uint256 _pid, uint256 _amount, bool _stake) public returns(bool){\n        require(!isShutdown,\"shutdown\");\n        PoolInfo storage pool = poolInfo[_pid];\n        require(pool.shutdown == false, \"pool is closed\");\n\n        //send to proxy to stake\n        address lptoken = pool.lptoken;\n        IERC20(lptoken).safeTransferFrom(msg.sender, staker, _amount);\n\n        //stake\n        address gauge = pool.gauge;\n        require(gauge != address(0),\"!gauge setting\");\n        IStaker(staker).deposit(lptoken,gauge);\n\n        //some gauges claim rewards when depositing, stash them in a seperate contract until next claim\n        address stash = pool.stash;\n        if(stash != address(0)){\n            IStash(stash).stashRewards();\n        }\n\n        address token = pool.token;\n        if(_stake){\n            //mint here and send to rewards on user behalf\n            ITokenMinter(token).mint(address(this),_amount);\n            address rewardContract = pool.crvRewards;\n            IERC20(token).safeApprove(rewardContract,0);\n            IERC20(token).safeApprove(rewardContract,_amount);\n            IRewards(rewardContract).stakeFor(msg.sender,_amount);\n        }else{\n            //add user balance directly\n            ITokenMinter(token).mint(msg.sender,_amount);\n        }\n\n        \n        emit Deposited(msg.sender, _pid, _amount);\n        return true;\n    }\n\n    //deposit all lp tokens and stake\n    function depositAll(uint256 _pid, bool _stake) external returns(bool){\n        address lptoken = poolInfo[_pid].lptoken;\n        uint256 balance = IERC20(lptoken).balanceOf(msg.sender);\n        deposit(_pid,balance,_stake);\n        return true;\n    }\n\n    //withdraw lp tokens\n    function _withdraw(uint256 _pid, uint256 _amount, address _from, address _to) internal {\n        PoolInfo storage pool = poolInfo[_pid];\n        address lptoken = pool.lptoken;\n        address gauge = pool.gauge;\n\n        //remove lp balance\n        address token = pool.token;\n        ITokenMinter(token).burn(_from,_amount);\n\n        //pull from gauge if not shutdown\n        // if shutdown tokens will be in this contract\n        if (!pool.shutdown) {\n            IStaker(staker).withdraw(lptoken,gauge, _amount);\n        }\n\n        //some gauges claim rewards when withdrawing, stash them in a seperate contract until next claim\n        //do not call if shutdown since stashes wont have access\n        address stash = pool.stash;\n        if(stash != address(0) && !isShutdown && !pool.shutdown){\n            IStash(stash).stashRewards();\n        }\n        \n        //return lp tokens\n        IERC20(lptoken).safeTransfer(_to, _amount);\n\n        emit Withdrawn(_to, _pid, _amount);\n    }\n\n    //withdraw lp tokens\n    function withdraw(uint256 _pid, uint256 _amount) public returns(bool){\n        _withdraw(_pid,_amount,msg.sender,msg.sender);\n        return true;\n    }\n\n    //withdraw all lp tokens\n    function withdrawAll(uint256 _pid) public returns(bool){\n        address token = poolInfo[_pid].token;\n        uint256 userBal = IERC20(token).balanceOf(msg.sender);\n        withdraw(_pid, userBal);\n        return true;\n    }\n\n    //allow reward contracts to send here and withdraw to user\n    function withdrawTo(uint256 _pid, uint256 _amount, address _to) external returns(bool){\n        address rewardContract = poolInfo[_pid].crvRewards;\n        require(msg.sender == rewardContract,\"!auth\");\n\n        _withdraw(_pid,_amount,msg.sender,_to);\n        return true;\n    }\n\n\n    //delegate address votes on dao\n    function vote(uint256 _voteId, address _votingAddress, bool _support) external returns(bool){\n        require(msg.sender == voteDelegate, \"!auth\");\n        require(_votingAddress == voteOwnership || _votingAddress == voteParameter, \"!voteAddr\");\n        \n        IStaker(staker).vote(_voteId,_votingAddress,_support);\n        return true;\n    }\n\n    function voteGaugeWeight(address[] calldata _gauge, uint256[] calldata _weight ) external returns(bool){\n        require(msg.sender == voteDelegate, \"!auth\");\n\n        for(uint256 i = 0; i < _gauge.length; i++){\n            IStaker(staker).voteGaugeWeight(_gauge[i],_weight[i]);\n        }\n        return true;\n    }\n\n    function claimRewards(uint256 _pid, address _gauge) external returns(bool){\n        address stash = poolInfo[_pid].stash;\n        require(msg.sender == stash,\"!auth\");\n\n        IStaker(staker).claimRewards(_gauge);\n        return true;\n    }\n\n    function setGaugeRedirect(uint256 _pid) external returns(bool){\n        address stash = poolInfo[_pid].stash;\n        require(msg.sender == stash,\"!auth\");\n        address gauge = poolInfo[_pid].gauge;\n        bytes memory data = abi.encodeWithSelector(bytes4(keccak256(\"set_rewards_receiver(address)\")), stash);\n        IStaker(staker).execute(gauge,uint256(0),data);\n        return true;\n    }\n\n    //claim crv and extra rewards and disperse to reward contracts\n    function _earmarkRewards(uint256 _pid) internal {\n        PoolInfo storage pool = poolInfo[_pid];\n        require(pool.shutdown == false, \"pool is closed\");\n\n        address gauge = pool.gauge;\n\n        //claim crv\n        IStaker(staker).claimCrv(gauge);\n\n        //check if there are extra rewards\n        address stash = pool.stash;\n        if(stash != address(0)){\n            //claim extra rewards\n            IStash(stash).claimRewards();\n            //process extra rewards\n            IStash(stash).processStash();\n        }\n\n        //crv balance\n        uint256 crvBal = IERC20(crv).balanceOf(address(this));\n\n        if (crvBal > 0) {\n            uint256 _lockIncentive = crvBal.mul(lockIncentive).div(FEE_DENOMINATOR);\n            uint256 _stakerIncentive = crvBal.mul(stakerIncentive).div(FEE_DENOMINATOR);\n            uint256 _callIncentive = crvBal.mul(earmarkIncentive).div(FEE_DENOMINATOR);\n            \n            //send treasury\n            if(treasury != address(0) && treasury != address(this) && platformFee > 0){\n                //only subtract after address condition check\n                uint256 _platform = crvBal.mul(platformFee).div(FEE_DENOMINATOR);\n                crvBal = crvBal.sub(_platform);\n                IERC20(crv).safeTransfer(treasury, _platform);\n            }\n\n            //remove incentives from balance\n            crvBal = crvBal.sub(_lockIncentive).sub(_callIncentive).sub(_stakerIncentive);\n\n            //send incentives for calling\n            IERC20(crv).safeTransfer(msg.sender, _callIncentive);          \n\n            //send crv to lp provider reward contract\n            address rewardContract = pool.crvRewards;\n            IERC20(crv).safeTransfer(rewardContract, crvBal);\n            IRewards(rewardContract).queueNewRewards(crvBal);\n\n            //send lockers' share of crv to reward contract\n            IERC20(crv).safeTransfer(lockRewards, _lockIncentive);\n            IRewards(lockRewards).queueNewRewards(_lockIncentive);\n\n            //send stakers's share of crv to reward contract\n            IERC20(crv).safeTransfer(stakerRewards, _stakerIncentive);\n            IRewards(stakerRewards).queueNewRewards(_stakerIncentive);\n        }\n    }\n\n    function earmarkRewards(uint256 _pid) external returns(bool){\n        require(!isShutdown,\"shutdown\");\n        _earmarkRewards(_pid);\n        return true;\n    }\n\n    //claim fees from curve distro contract, put in lockers' reward contract\n    function earmarkFees() external returns(bool){\n        //claim fee rewards\n        IStaker(staker).claimFees(feeDistro, feeToken);\n        //send fee rewards to reward contract\n        uint256 _balance = IERC20(feeToken).balanceOf(address(this));\n        IERC20(feeToken).safeTransfer(lockFees, _balance);\n        IRewards(lockFees).queueNewRewards(_balance);\n        return true;\n    }\n\n    //callback from reward contract when crv is received.\n    function rewardClaimed(uint256 _pid, address _address, uint256 _amount) external returns(bool){\n        address rewardContract = poolInfo[_pid].crvRewards;\n        require(msg.sender == rewardContract || msg.sender == lockRewards, \"!auth\");\n\n        //mint reward tokens\n        ITokenMinter(minter).mint(_address,_amount);\n        \n        return true;\n    }\n\n}",
  "sourcePath": "/Users/nikitavagin/Desktop/projects/SFXDX/projects/curve-convex/convex-platform/contracts/Booster.sol",
  "compiler": {
    "name": "solc",
    "version": "0.6.12+commit.27d51765.Emscripten.clang"
  },
  "schemaVersion": "3.4.1",
  "updatedAt": "2021-07-07T14:20:34.763Z",
  "networkType": "ethereum",
  "devdoc": {
    "kind": "dev",
    "methods": {},
    "version": 1
  },
  "userdoc": {
    "kind": "user",
    "methods": {
      "poolLength()": {
        "notice": "END SETTER SECTION ///"
      },
      "setOwner(address)": {
        "notice": "SETTER SECTION ///"
      }
    },
    "version": 1
  }
}